{
  "contractName": "Charity",
  "abi": [
    {
      "inputs": [
        {
          "internalType": "address",
          "name": "_token",
          "type": "address"
        }
      ],
      "stateMutability": "nonpayable",
      "type": "constructor"
    },
    {
      "anonymous": false,
      "inputs": [
        {
          "indexed": true,
          "internalType": "address",
          "name": "previousOwner",
          "type": "address"
        },
        {
          "indexed": true,
          "internalType": "address",
          "name": "newOwner",
          "type": "address"
        }
      ],
      "name": "OwnershipTransferred",
      "type": "event"
    },
    {
      "inputs": [],
      "name": "deadline",
      "outputs": [
        {
          "internalType": "uint256",
          "name": "",
          "type": "uint256"
        }
      ],
      "stateMutability": "view",
      "type": "function",
      "constant": true
    },
    {
      "inputs": [],
      "name": "owner",
      "outputs": [
        {
          "internalType": "address",
          "name": "",
          "type": "address"
        }
      ],
      "stateMutability": "view",
      "type": "function",
      "constant": true
    },
    {
      "inputs": [],
      "name": "proposalIds",
      "outputs": [
        {
          "internalType": "uint256",
          "name": "",
          "type": "uint256"
        }
      ],
      "stateMutability": "view",
      "type": "function",
      "constant": true
    },
    {
      "inputs": [
        {
          "internalType": "uint256",
          "name": "",
          "type": "uint256"
        }
      ],
      "name": "proposals",
      "outputs": [
        {
          "internalType": "string",
          "name": "message",
          "type": "string"
        },
        {
          "internalType": "uint256",
          "name": "proposalId",
          "type": "uint256"
        },
        {
          "internalType": "uint256",
          "name": "votesFor",
          "type": "uint256"
        },
        {
          "internalType": "uint256",
          "name": "votesAgainst",
          "type": "uint256"
        },
        {
          "internalType": "bool",
          "name": "passed",
          "type": "bool"
        },
        {
          "internalType": "uint256",
          "name": "startingTime",
          "type": "uint256"
        },
        {
          "internalType": "uint256",
          "name": "endingTime",
          "type": "uint256"
        },
        {
          "internalType": "bool",
          "name": "locked",
          "type": "bool"
        },
        {
          "internalType": "address",
          "name": "sender",
          "type": "address"
        },
        {
          "internalType": "address",
          "name": "_receiver",
          "type": "address"
        },
        {
          "internalType": "uint256",
          "name": "target",
          "type": "uint256"
        },
        {
          "internalType": "bool",
          "name": "isActive",
          "type": "bool"
        }
      ],
      "stateMutability": "view",
      "type": "function",
      "constant": true
    },
    {
      "inputs": [],
      "name": "renounceOwnership",
      "outputs": [],
      "stateMutability": "nonpayable",
      "type": "function"
    },
    {
      "inputs": [
        {
          "internalType": "address",
          "name": "newOwner",
          "type": "address"
        }
      ],
      "name": "transferOwnership",
      "outputs": [],
      "stateMutability": "nonpayable",
      "type": "function"
    },
    {
      "inputs": [],
      "name": "users",
      "outputs": [
        {
          "internalType": "uint256",
          "name": "",
          "type": "uint256"
        }
      ],
      "stateMutability": "view",
      "type": "function",
      "constant": true
    },
    {
      "inputs": [
        {
          "internalType": "string",
          "name": "_message",
          "type": "string"
        },
        {
          "internalType": "address",
          "name": "_receiver",
          "type": "address"
        },
        {
          "internalType": "uint256",
          "name": "_target",
          "type": "uint256"
        }
      ],
      "name": "addProposal",
      "outputs": [],
      "stateMutability": "nonpayable",
      "type": "function"
    },
    {
      "inputs": [
        {
          "internalType": "uint256",
          "name": "_proposalId",
          "type": "uint256"
        }
      ],
      "name": "voteFor",
      "outputs": [],
      "stateMutability": "nonpayable",
      "type": "function"
    },
    {
      "inputs": [
        {
          "internalType": "uint256",
          "name": "_proposalId",
          "type": "uint256"
        }
      ],
      "name": "VoteAgainst",
      "outputs": [],
      "stateMutability": "nonpayable",
      "type": "function"
    },
    {
      "inputs": [
        {
          "internalType": "uint256",
          "name": "_proposalId",
          "type": "uint256"
        }
      ],
      "name": "executeProposal",
      "outputs": [
        {
          "internalType": "string",
          "name": "",
          "type": "string"
        }
      ],
      "stateMutability": "nonpayable",
      "type": "function"
    },
    {
      "inputs": [
        {
          "internalType": "uint256",
          "name": "_proposalId",
          "type": "uint256"
        }
      ],
      "name": "cancelProposal",
      "outputs": [],
      "stateMutability": "nonpayable",
      "type": "function"
    },
    {
      "inputs": [
        {
          "internalType": "uint256",
          "name": "_proposalId",
          "type": "uint256"
        }
      ],
      "name": "timeLeft",
      "outputs": [
        {
          "internalType": "uint256",
          "name": "",
          "type": "uint256"
        }
      ],
      "stateMutability": "view",
      "type": "function",
      "constant": true
    }
  ],
  "bytecode": "0x6080604052601e42620000139190620001b6565b6006553480156200002357600080fd5b506040516200238f3803806200238f83398181016040528101906200004991906200027d565b620000696200005d620000b160201b60201c565b620000b960201b60201c565b80600160006101000a81548173ffffffffffffffffffffffffffffffffffffffff021916908373ffffffffffffffffffffffffffffffffffffffff16021790555050620002af565b600033905090565b60008060009054906101000a900473ffffffffffffffffffffffffffffffffffffffff169050816000806101000a81548173ffffffffffffffffffffffffffffffffffffffff021916908373ffffffffffffffffffffffffffffffffffffffff1602179055508173ffffffffffffffffffffffffffffffffffffffff168173ffffffffffffffffffffffffffffffffffffffff167f8be0079c531659141344cd1fd0a4f28419497f9722a3daafe3b4186f6b6457e060405160405180910390a35050565b6000819050919050565b7f4e487b7100000000000000000000000000000000000000000000000000000000600052601160045260246000fd5b6000620001c3826200017d565b9150620001d0836200017d565b9250827fffffffffffffffffffffffffffffffffffffffffffffffffffffffffffffffff0382111562000208576200020762000187565b5b828201905092915050565b600080fd5b600073ffffffffffffffffffffffffffffffffffffffff82169050919050565b6000620002458262000218565b9050919050565b620002578162000238565b81146200026357600080fd5b50565b60008151905062000277816200024c565b92915050565b60006020828403121562000296576200029562000213565b5b6000620002a68482850162000266565b91505092915050565b6120d080620002bf6000396000f3fe608060405234801561001057600080fd5b50600436106100cf5760003560e01c8063568881a31161008c5780638da5cb5b116100665780638da5cb5b14610209578063e0a8f6f514610227578063f202027514610243578063f2fde38b14610261576100cf565b8063568881a3146101c7578063715018a6146101e357806386a50535146101ed576100cf565b8063013cf08b146100d45780630d61b5191461010f5780631875c3f11461013f57806329dcb0cf1461015b5780633d5af2ed1461017957806347cb7a6814610197575b600080fd5b6100ee60048036038101906100e99190611777565b61027d565b6040516101069c9b9a999897969594939291906118a8565b60405180910390f35b61012960048036038101906101249190611777565b6103dc565b6040516101369190611969565b60405180910390f35b61015960048036038101906101549190611777565b610715565b005b610163610ae8565b604051610170919061198b565b60405180910390f35b610181610aee565b60405161018e919061198b565b60405180910390f35b6101b160048036038101906101ac9190611777565b610af4565b6040516101be919061198b565b60405180910390f35b6101e160048036038101906101dc9190611b07565b610b65565b005b6101eb610e3a565b005b61020760048036038101906102029190611777565b610ec2565b005b610211611295565b60405161021e9190611b76565b60405180910390f35b610241600480360381019061023c9190611777565b6112be565b005b61024b6114c1565b604051610258919061198b565b60405180910390f35b61027b60048036038101906102769190611b91565b6114c7565b005b6007818154811061028d57600080fd5b90600052602060002090600b02016000915090508060000180546102b090611bed565b80601f01602080910402602001604051908101604052809291908181526020018280546102dc90611bed565b80156103295780601f106102fe57610100808354040283529160200191610329565b820191906000526020600020905b81548152906001019060200180831161030c57829003601f168201915b5050505050908060010154908060020154908060030154908060040160009054906101000a900460ff16908060050154908060060154908060070160009054906101000a900460ff16908060070160019054906101000a900473ffffffffffffffffffffffffffffffffffffffff16908060080160009054906101000a900473ffffffffffffffffffffffffffffffffffffffff169080600901549080600a0160009054906101000a900460ff1690508c565b60608160001515600782815481106103f7576103f6611c1e565b5b90600052602060002090600b020160040160009054906101000a900460ff1615151461042257600080fd5b600061042d84610af4565b1461043757600080fd5b3373ffffffffffffffffffffffffffffffffffffffff166007848154811061046257610461611c1e565b5b90600052602060002090600b020160070160019054906101000a900473ffffffffffffffffffffffffffffffffffffffff1673ffffffffffffffffffffffffffffffffffffffff16146104b457600080fd5b600783815481106104c8576104c7611c1e565b5b90600052602060002090600b020160030154600784815481106104ee576104ed611c1e565b5b90600052602060002090600b02016002015411156106985760016007848154811061051c5761051b611c1e565b5b90600052602060002090600b020160040160006101000a81548160ff02191690831515021790555060006007848154811061055a57610559611c1e565b5b90600052602060002090600b020160080160009054906101000a900473ffffffffffffffffffffffffffffffffffffffff1673ffffffffffffffffffffffffffffffffffffffff16600785815481106105b6576105b5611c1e565b5b90600052602060002090600b0201600901546040516105d490611c7e565b60006040518083038185875af1925050503d8060008114610611576040519150601f19603f3d011682016040523d82523d6000602084013e610616565b606091505b505090508061065a576040517f08c379a000000000000000000000000000000000000000000000000000000000815260040161065190611cdf565b60405180910390fd5b6040518060400160405280600781526020017f737563636573730000000000000000000000000000000000000000000000000081525092505061070f565b6000600784815481106106ae576106ad611c1e565b5b90600052602060002090600b0201600a0160006101000a81548160ff0219169083151502179055506040518060400160405280600481526020017f6661696c0000000000000000000000000000000000000000000000000000000081525091505b50919050565b80600015156007828154811061072e5761072d611c1e565b5b90600052602060002090600b020160040160009054906101000a900460ff1615151461075957600080fd5b60011515600160009054906101000a900473ffffffffffffffffffffffffffffffffffffffff1673ffffffffffffffffffffffffffffffffffffffff166372cb8f8233856040518363ffffffff1660e01b81526004016107ba929190611cff565b602060405180830381865afa1580156107d7573d6000803e3d6000fd5b505050506040513d601f19601f820116820180604052508101906107fb9190611d54565b15151461080757600080fd5b600061081283610af4565b1161081c57600080fd5b600015156003600084815260200190815260200160002060003373ffffffffffffffffffffffffffffffffffffffff1673ffffffffffffffffffffffffffffffffffffffff16815260200190815260200160002060009054906101000a900460ff161515146108c0576040517f08c379a00000000000000000000000000000000000000000000000000000000081526004016108b790611dcd565b60405180910390fd5b6000600160009054906101000a900473ffffffffffffffffffffffffffffffffffffffff1673ffffffffffffffffffffffffffffffffffffffff16639ab24eb0336040518263ffffffff1660e01b815260040161091d9190611b76565b602060405180830381865afa15801561093a573d6000803e3d6000fd5b505050506040513d601f19601f8201168201806040525081019061095e9190611e02565b1161099e576040517f08c379a000000000000000000000000000000000000000000000000000000000815260040161099590611e7b565b60405180910390fd5b6000600160009054906101000a900473ffffffffffffffffffffffffffffffffffffffff1673ffffffffffffffffffffffffffffffffffffffff16639ab24eb0336040518263ffffffff1660e01b81526004016109fb9190611b76565b602060405180830381865afa158015610a18573d6000803e3d6000fd5b505050506040513d601f19601f82011682018060405250810190610a3c9190611e02565b90508060078481548110610a5357610a52611c1e565b5b90600052602060002090600b02016002016000828254610a739190611eca565b9250508190555060016003600085815260200190815260200160002060003373ffffffffffffffffffffffffffffffffffffffff1673ffffffffffffffffffffffffffffffffffffffff16815260200190815260200160002060006101000a81548160ff021916908315150217905550505050565b60065481565b60055481565b600060078281548110610b0a57610b09611c1e565b5b90600052602060002090600b020160060154421115610b2c5760009050610b60565b4260078381548110610b4157610b40611c1e565b5b90600052602060002090600b020160060154610b5d9190611f20565b90505b919050565b60056000815480929190610b7890611f54565b919050555060076040518061018001604052808581526020016001600554610ba09190611f20565b815260200160008152602001600081526020016000151581526020014281526020016203f48042610bd19190611eca565b81526020016000151581526020013373ffffffffffffffffffffffffffffffffffffffff1681526020018473ffffffffffffffffffffffffffffffffffffffff1681526020018381526020016001151581525090806001815401808255809150506001900390600052602060002090600b02016000909190919091506000820151816000019080519060200190610c6992919061168a565b5060208201518160010155604082015181600201556060820151816003015560808201518160040160006101000a81548160ff02191690831515021790555060a0820151816005015560c0820151816006015560e08201518160070160006101000a81548160ff0219169083151502179055506101008201518160070160016101000a81548173ffffffffffffffffffffffffffffffffffffffff021916908373ffffffffffffffffffffffffffffffffffffffff1602179055506101208201518160080160006101000a81548173ffffffffffffffffffffffffffffffffffffffff021916908373ffffffffffffffffffffffffffffffffffffffff160217905550610140820151816009015561016082015181600a0160006101000a81548160ff0219169083151502179055505050600160009054906101000a900473ffffffffffffffffffffffffffffffffffffffff1673ffffffffffffffffffffffffffffffffffffffff1663a13f2f8d6001600554610de79190611f20565b6040518263ffffffff1660e01b8152600401610e03919061198b565b600060405180830381600087803b158015610e1d57600080fd5b505af1158015610e31573d6000803e3d6000fd5b50505050505050565b610e426115be565b73ffffffffffffffffffffffffffffffffffffffff16610e60611295565b73ffffffffffffffffffffffffffffffffffffffff1614610eb6576040517f08c379a0000000000000000000000000000000000000000000000000000000008152600401610ead90611fe8565b60405180910390fd5b610ec060006115c6565b565b806000151560078281548110610edb57610eda611c1e565b5b90600052602060002090600b020160040160009054906101000a900460ff16151514610f0657600080fd5b60011515600160009054906101000a900473ffffffffffffffffffffffffffffffffffffffff1673ffffffffffffffffffffffffffffffffffffffff166372cb8f8233856040518363ffffffff1660e01b8152600401610f67929190611cff565b602060405180830381865afa158015610f84573d6000803e3d6000fd5b505050506040513d601f19601f82011682018060405250810190610fa89190611d54565b151514610fb457600080fd5b6000610fbf83610af4565b11610fc957600080fd5b600015156003600084815260200190815260200160002060003373ffffffffffffffffffffffffffffffffffffffff1673ffffffffffffffffffffffffffffffffffffffff16815260200190815260200160002060009054906101000a900460ff1615151461106d576040517f08c379a000000000000000000000000000000000000000000000000000000000815260040161106490611dcd565b60405180910390fd5b6000600160009054906101000a900473ffffffffffffffffffffffffffffffffffffffff1673ffffffffffffffffffffffffffffffffffffffff16639ab24eb0336040518263ffffffff1660e01b81526004016110ca9190611b76565b602060405180830381865afa1580156110e7573d6000803e3d6000fd5b505050506040513d601f19601f8201168201806040525081019061110b9190611e02565b1161114b576040517f08c379a000000000000000000000000000000000000000000000000000000000815260040161114290611e7b565b60405180910390fd5b6000600160009054906101000a900473ffffffffffffffffffffffffffffffffffffffff1673ffffffffffffffffffffffffffffffffffffffff16639ab24eb0336040518263ffffffff1660e01b81526004016111a89190611b76565b602060405180830381865afa1580156111c5573d6000803e3d6000fd5b505050506040513d601f19601f820116820180604052508101906111e99190611e02565b90508060078481548110611200576111ff611c1e565b5b90600052602060002090600b020160020160008282546112209190611eca565b9250508190555060016003600085815260200190815260200160002060003373ffffffffffffffffffffffffffffffffffffffff1673ffffffffffffffffffffffffffffffffffffffff16815260200190815260200160002060006101000a81548160ff021916908315150217905550505050565b60008060009054906101000a900473ffffffffffffffffffffffffffffffffffffffff16905090565b8060001515600782815481106112d7576112d6611c1e565b5b90600052602060002090600b020160040160009054906101000a900460ff1615151461130257600080fd5b816007818154811061131757611316611c1e565b5b90600052602060002090600b020160070160019054906101000a900473ffffffffffffffffffffffffffffffffffffffff1673ffffffffffffffffffffffffffffffffffffffff163373ffffffffffffffffffffffffffffffffffffffff161461138057600080fd5b600115156007828154811061139857611397611c1e565b5b90600052602060002090600b020160070160009054906101000a900460ff161515036113c357600080fd5b3373ffffffffffffffffffffffffffffffffffffffff16600784815481106113ee576113ed611c1e565b5b90600052602060002090600b020160070160019054906101000a900473ffffffffffffffffffffffffffffffffffffffff1673ffffffffffffffffffffffffffffffffffffffff161461144057600080fd5b60016007848154811061145657611455611c1e565b5b90600052602060002090600b020160070160006101000a81548160ff02191690831515021790555060006007848154811061149457611493611c1e565b5b90600052602060002090600b0201600a0160006101000a81548160ff021916908315150217905550505050565b60045481565b6114cf6115be565b73ffffffffffffffffffffffffffffffffffffffff166114ed611295565b73ffffffffffffffffffffffffffffffffffffffff1614611543576040517f08c379a000000000000000000000000000000000000000000000000000000000815260040161153a90611fe8565b60405180910390fd5b600073ffffffffffffffffffffffffffffffffffffffff168173ffffffffffffffffffffffffffffffffffffffff16036115b2576040517f08c379a00000000000000000000000000000000000000000000000000000000081526004016115a99061207a565b60405180910390fd5b6115bb816115c6565b50565b600033905090565b60008060009054906101000a900473ffffffffffffffffffffffffffffffffffffffff169050816000806101000a81548173ffffffffffffffffffffffffffffffffffffffff021916908373ffffffffffffffffffffffffffffffffffffffff1602179055508173ffffffffffffffffffffffffffffffffffffffff168173ffffffffffffffffffffffffffffffffffffffff167f8be0079c531659141344cd1fd0a4f28419497f9722a3daafe3b4186f6b6457e060405160405180910390a35050565b82805461169690611bed565b90600052602060002090601f0160209004810192826116b857600085556116ff565b82601f106116d157805160ff19168380011785556116ff565b828001600101855582156116ff579182015b828111156116fe5782518255916020019190600101906116e3565b5b50905061170c9190611710565b5090565b5b80821115611729576000816000905550600101611711565b5090565b6000604051905090565b600080fd5b600080fd5b6000819050919050565b61175481611741565b811461175f57600080fd5b50565b6000813590506117718161174b565b92915050565b60006020828403121561178d5761178c611737565b5b600061179b84828501611762565b91505092915050565b600081519050919050565b600082825260208201905092915050565b60005b838110156117de5780820151818401526020810190506117c3565b838111156117ed576000848401525b50505050565b6000601f19601f8301169050919050565b600061180f826117a4565b61181981856117af565b93506118298185602086016117c0565b611832816117f3565b840191505092915050565b61184681611741565b82525050565b60008115159050919050565b6118618161184c565b82525050565b600073ffffffffffffffffffffffffffffffffffffffff82169050919050565b600061189282611867565b9050919050565b6118a281611887565b82525050565b60006101808201905081810360008301526118c3818f611804565b90506118d2602083018e61183d565b6118df604083018d61183d565b6118ec606083018c61183d565b6118f9608083018b611858565b61190660a083018a61183d565b61191360c083018961183d565b61192060e0830188611858565b61192e610100830187611899565b61193c610120830186611899565b61194a61014083018561183d565b611958610160830184611858565b9d9c50505050505050505050505050565b600060208201905081810360008301526119838184611804565b905092915050565b60006020820190506119a0600083018461183d565b92915050565b600080fd5b600080fd5b7f4e487b7100000000000000000000000000000000000000000000000000000000600052604160045260246000fd5b6119e8826117f3565b810181811067ffffffffffffffff82111715611a0757611a066119b0565b5b80604052505050565b6000611a1a61172d565b9050611a2682826119df565b919050565b600067ffffffffffffffff821115611a4657611a456119b0565b5b611a4f826117f3565b9050602081019050919050565b82818337600083830152505050565b6000611a7e611a7984611a2b565b611a10565b905082815260208101848484011115611a9a57611a996119ab565b5b611aa5848285611a5c565b509392505050565b600082601f830112611ac257611ac16119a6565b5b8135611ad2848260208601611a6b565b91505092915050565b611ae481611887565b8114611aef57600080fd5b50565b600081359050611b0181611adb565b92915050565b600080600060608486031215611b2057611b1f611737565b5b600084013567ffffffffffffffff811115611b3e57611b3d61173c565b5b611b4a86828701611aad565b9350506020611b5b86828701611af2565b9250506040611b6c86828701611762565b9150509250925092565b6000602082019050611b8b6000830184611899565b92915050565b600060208284031215611ba757611ba6611737565b5b6000611bb584828501611af2565b91505092915050565b7f4e487b7100000000000000000000000000000000000000000000000000000000600052602260045260246000fd5b60006002820490506001821680611c0557607f821691505b602082108103611c1857611c17611bbe565b5b50919050565b7f4e487b7100000000000000000000000000000000000000000000000000000000600052603260045260246000fd5b600081905092915050565b50565b6000611c68600083611c4d565b9150611c7382611c58565b600082019050919050565b6000611c8982611c5b565b9150819050919050565b7f6661696c656420646964206e6f742073656e6400000000000000000000000000600082015250565b6000611cc96013836117af565b9150611cd482611c93565b602082019050919050565b60006020820190508181036000830152611cf881611cbc565b9050919050565b6000604082019050611d146000830185611899565b611d21602083018461183d565b9392505050565b611d318161184c565b8114611d3c57600080fd5b50565b600081519050611d4e81611d28565b92915050565b600060208284031215611d6a57611d69611737565b5b6000611d7884828501611d3f565b91505092915050565b7f796f75206861766520766f746500000000000000000000000000000000000000600082015250565b6000611db7600d836117af565b9150611dc282611d81565b602082019050919050565b60006020820190508181036000830152611de681611daa565b9050919050565b600081519050611dfc8161174b565b92915050565b600060208284031215611e1857611e17611737565b5b6000611e2684828501611ded565b91505092915050565b7f796f752063616e277420766f7465000000000000000000000000000000000000600082015250565b6000611e65600e836117af565b9150611e7082611e2f565b602082019050919050565b60006020820190508181036000830152611e9481611e58565b9050919050565b7f4e487b7100000000000000000000000000000000000000000000000000000000600052601160045260246000fd5b6000611ed582611741565b9150611ee083611741565b9250827fffffffffffffffffffffffffffffffffffffffffffffffffffffffffffffffff03821115611f1557611f14611e9b565b5b828201905092915050565b6000611f2b82611741565b9150611f3683611741565b925082821015611f4957611f48611e9b565b5b828203905092915050565b6000611f5f82611741565b91507fffffffffffffffffffffffffffffffffffffffffffffffffffffffffffffffff8203611f9157611f90611e9b565b5b600182019050919050565b7f4f776e61626c653a2063616c6c6572206973206e6f7420746865206f776e6572600082015250565b6000611fd26020836117af565b9150611fdd82611f9c565b602082019050919050565b6000602082019050818103600083015261200181611fc5565b9050919050565b7f4f776e61626c653a206e6577206f776e657220697320746865207a65726f206160008201527f6464726573730000000000000000000000000000000000000000000000000000602082015250565b60006120646026836117af565b915061206f82612008565b604082019050919050565b6000602082019050818103600083015261209381612057565b905091905056fea26469706673582212205953085aeb733f25aa57cb04c23d9b16b88997ee0dbbc89ece4dd2e25a5805ae64736f6c634300080d0033",
  "immutableReferences": {},
  "source": "// SPDX-License-Identifier: MIT\npragma solidity >=0.4.22 <0.9.0;\n\nimport \"@openzeppelin/contracts/access/Ownable.sol\";\nimport \"./Token.sol\";\n\ncontract Charity is Ownable{\n\n  Token tokens;\n\n  constructor(address _token) public {\n     tokens = Token(_token);\n  }\n\n   //struct proposal \n   struct Proposal{\n     string message;\n     uint256 proposalId;\n     uint256 votesFor;\n     uint256 votesAgainst;\n     bool passed;\n     uint256 startingTime;\n     uint256 endingTime;\n     bool locked;\n     address sender;\n     address _receiver;\n     uint256 target;\n     bool isActive;\n   }\n\n   /*                                     MODIFIERS                               */\n   modifier passed(uint256 _id){\n     require(proposals[_id].passed == false);\n     _;\n   }\n\n   //only sender can modify the state variable\n   modifier onlySender(uint256 _id){\n       require(msg.sender == proposals[_id].sender);\n       require(proposals[_id].locked != true);\n\n       _;\n   }\n\n\n   /*                                     MAPPINGS                                */\n   // mapping of individual addres to balance\n   mapping(address => uint256) balance;\n\n   /*mapping of proposalId to address then boolean\n    func: to check if the user has already vote and delegate their vote \n    params: takes in the proposalId, the sender address*/\n    mapping(uint256 => mapping(address => bool)) hasVoted;\n\n   //no of users\n   uint256 public users;\n   uint256 public proposalIds;\n   uint256 public deadline = block.timestamp + 30 seconds;\n   \n    \n\n   Proposal[] public proposals;\n\n \n  /*                                   FUNCTIONS                                    */ \n\n   //add proposal\n   function addProposal\n   (string memory _message, address _receiver, uint256 _target)\n    public {\n     proposalIds++;\n     proposals.push(Proposal(_message, proposalIds - 1, 0, 0, false, block.timestamp, block.timestamp + 3 days, false, msg.sender, _receiver, _target,true));\n     tokens.registerVoter(proposalIds - 1);\n   }\n\n   //vote for the proposal\n   function voteFor(uint256 _proposalId) public  passed(_proposalId){\n      require(tokens.verifyVoters(msg.sender, _proposalId) == true);\n      //to check if proposal has not expired\n      require(timeLeft(_proposalId) > 0);\n      //to check if sender has not vote\n      require(hasVoted[_proposalId][msg.sender] == false, \"you have vote\");\n      //to check whether the sender can vote\n      require(tokens.getVotes(msg.sender) > 0, \"you can't vote\");\n      uint256 bal = tokens.getVotes(msg.sender);\n      proposals[_proposalId].votesFor += bal;\n      //set hasVote to true\n      hasVoted[_proposalId][msg.sender] = true;\n   }\n\n   //votes against the proposal\n   function VoteAgainst(uint256 _proposalId) public  passed(_proposalId){\n      require(tokens.verifyVoters(msg.sender, _proposalId) == true);\n      //to check if proposal has not expired\n      require(timeLeft(_proposalId) > 0);\n      //to check if sender has not vote\n      require(hasVoted[_proposalId][msg.sender] == false, \"you have vote\");\n      //to check whether the sender can vote\n      require(tokens.getVotes(msg.sender) > 0, \"you can't vote\");\n      uint256 bal = tokens.getVotes(msg.sender);\n      proposals[_proposalId].votesFor += bal;\n\n      //set hasVote to true\n      hasVoted[_proposalId][msg.sender] = true;\n   }\n \n   //execute the proposal if voting is done and time is up\n   function executeProposal(uint256 _proposalId) public passed(_proposalId)  returns(string memory){\n      //to check if proposal has expired\n     require(timeLeft(_proposalId) == 0);\n\n     require(proposals[_proposalId].sender == msg.sender);\n  \n     if(proposals[_proposalId].votesFor > proposals[_proposalId].votesAgainst){\n       proposals[_proposalId].passed = true;\n\n       (bool success,) = proposals[_proposalId]._receiver.call{value: proposals[_proposalId].target}(\"\");\n       require(success, \"failed did not send\");\n\n       return \"success\"; \n\n     }else{\n      proposals[_proposalId].isActive = false;\n      return \"fail\";\n      \n    \n\n     }\n   }\n\n   //cancel a proposal\n   function cancelProposal(uint256 _proposalId) public passed(_proposalId) onlySender(_proposalId) {\n      require(proposals[_proposalId].sender == msg.sender);\n      proposals[_proposalId].locked = true;\n      proposals[_proposalId].isActive = false;\n   }\n   \n\n   //time left for a propo\n   function timeLeft(uint256 _proposalId) public view returns(uint256){\n        if(block.timestamp > proposals[_proposalId].endingTime){\n           return 0;\n        }else{\n          return proposals[_proposalId].endingTime - block.timestamp;\n        }\n   }\n \n}",
  "sourcePath": "/home/malik/Desktop/crypto/Governance/contracts/Charity.sol",
  "compiler": {
    "name": "solc",
    "version": "0.8.13+commit.abaa5c0e.Emscripten.clang"
  },
  "schemaVersion": "3.4.7",
  "updatedAt": "2022-05-21T13:01:52.217Z",
  "networkType": "ethereum",
  "devdoc": {
    "kind": "dev",
    "methods": {
      "owner()": {
        "details": "Returns the address of the current owner."
      },
      "renounceOwnership()": {
        "details": "Leaves the contract without owner. It will not be possible to call `onlyOwner` functions anymore. Can only be called by the current owner. NOTE: Renouncing ownership will leave the contract without an owner, thereby removing any functionality that is only available to the owner."
      },
      "transferOwnership(address)": {
        "details": "Transfers ownership of the contract to a new account (`newOwner`). Can only be called by the current owner."
      }
    },
    "version": 1
  },
  "userdoc": {
    "kind": "user",
    "methods": {},
    "version": 1
  }
}