{
  "contractName": "Token",
  "abi": [
    {
      "inputs": [],
      "stateMutability": "nonpayable",
      "type": "constructor"
    },
    {
      "anonymous": false,
      "inputs": [
        {
          "indexed": true,
          "internalType": "address",
          "name": "owner",
          "type": "address"
        },
        {
          "indexed": true,
          "internalType": "address",
          "name": "spender",
          "type": "address"
        },
        {
          "indexed": false,
          "internalType": "uint256",
          "name": "value",
          "type": "uint256"
        }
      ],
      "name": "Approval",
      "type": "event"
    },
    {
      "anonymous": false,
      "inputs": [
        {
          "indexed": true,
          "internalType": "address",
          "name": "from",
          "type": "address"
        },
        {
          "indexed": true,
          "internalType": "address",
          "name": "to",
          "type": "address"
        },
        {
          "indexed": false,
          "internalType": "uint256",
          "name": "value",
          "type": "uint256"
        }
      ],
      "name": "Transfer",
      "type": "event"
    },
    {
      "inputs": [
        {
          "internalType": "address",
          "name": "owner",
          "type": "address"
        },
        {
          "internalType": "address",
          "name": "spender",
          "type": "address"
        }
      ],
      "name": "allowance",
      "outputs": [
        {
          "internalType": "uint256",
          "name": "",
          "type": "uint256"
        }
      ],
      "stateMutability": "view",
      "type": "function",
      "constant": true
    },
    {
      "inputs": [
        {
          "internalType": "address",
          "name": "spender",
          "type": "address"
        },
        {
          "internalType": "uint256",
          "name": "amount",
          "type": "uint256"
        }
      ],
      "name": "approve",
      "outputs": [
        {
          "internalType": "bool",
          "name": "",
          "type": "bool"
        }
      ],
      "stateMutability": "nonpayable",
      "type": "function"
    },
    {
      "inputs": [
        {
          "internalType": "address",
          "name": "account",
          "type": "address"
        }
      ],
      "name": "balanceOf",
      "outputs": [
        {
          "internalType": "uint256",
          "name": "",
          "type": "uint256"
        }
      ],
      "stateMutability": "view",
      "type": "function",
      "constant": true
    },
    {
      "inputs": [
        {
          "internalType": "uint256",
          "name": "",
          "type": "uint256"
        },
        {
          "internalType": "address",
          "name": "",
          "type": "address"
        }
      ],
      "name": "canVote",
      "outputs": [
        {
          "internalType": "bool",
          "name": "",
          "type": "bool"
        }
      ],
      "stateMutability": "view",
      "type": "function",
      "constant": true
    },
    {
      "inputs": [],
      "name": "decimals",
      "outputs": [
        {
          "internalType": "uint8",
          "name": "",
          "type": "uint8"
        }
      ],
      "stateMutability": "view",
      "type": "function",
      "constant": true
    },
    {
      "inputs": [
        {
          "internalType": "address",
          "name": "spender",
          "type": "address"
        },
        {
          "internalType": "uint256",
          "name": "subtractedValue",
          "type": "uint256"
        }
      ],
      "name": "decreaseAllowance",
      "outputs": [
        {
          "internalType": "bool",
          "name": "",
          "type": "bool"
        }
      ],
      "stateMutability": "nonpayable",
      "type": "function"
    },
    {
      "inputs": [
        {
          "internalType": "uint256",
          "name": "",
          "type": "uint256"
        }
      ],
      "name": "delegateVoters",
      "outputs": [
        {
          "internalType": "address",
          "name": "",
          "type": "address"
        }
      ],
      "stateMutability": "view",
      "type": "function",
      "constant": true
    },
    {
      "inputs": [],
      "name": "fee",
      "outputs": [
        {
          "internalType": "uint256",
          "name": "",
          "type": "uint256"
        }
      ],
      "stateMutability": "view",
      "type": "function",
      "constant": true
    },
    {
      "inputs": [
        {
          "internalType": "address",
          "name": "",
          "type": "address"
        }
      ],
      "name": "hasVotes",
      "outputs": [
        {
          "internalType": "uint256",
          "name": "",
          "type": "uint256"
        }
      ],
      "stateMutability": "view",
      "type": "function",
      "constant": true
    },
    {
      "inputs": [
        {
          "internalType": "address",
          "name": "spender",
          "type": "address"
        },
        {
          "internalType": "uint256",
          "name": "addedValue",
          "type": "uint256"
        }
      ],
      "name": "increaseAllowance",
      "outputs": [
        {
          "internalType": "bool",
          "name": "",
          "type": "bool"
        }
      ],
      "stateMutability": "nonpayable",
      "type": "function"
    },
    {
      "inputs": [],
      "name": "max_supply",
      "outputs": [
        {
          "internalType": "uint256",
          "name": "",
          "type": "uint256"
        }
      ],
      "stateMutability": "view",
      "type": "function",
      "constant": true
    },
    {
      "inputs": [],
      "name": "name",
      "outputs": [
        {
          "internalType": "string",
          "name": "",
          "type": "string"
        }
      ],
      "stateMutability": "view",
      "type": "function",
      "constant": true
    },
    {
      "inputs": [],
      "name": "symbol",
      "outputs": [
        {
          "internalType": "string",
          "name": "",
          "type": "string"
        }
      ],
      "stateMutability": "view",
      "type": "function",
      "constant": true
    },
    {
      "inputs": [],
      "name": "totalSupply",
      "outputs": [
        {
          "internalType": "uint256",
          "name": "",
          "type": "uint256"
        }
      ],
      "stateMutability": "view",
      "type": "function",
      "constant": true
    },
    {
      "inputs": [
        {
          "internalType": "address",
          "name": "to",
          "type": "address"
        },
        {
          "internalType": "uint256",
          "name": "amount",
          "type": "uint256"
        }
      ],
      "name": "transfer",
      "outputs": [
        {
          "internalType": "bool",
          "name": "",
          "type": "bool"
        }
      ],
      "stateMutability": "nonpayable",
      "type": "function"
    },
    {
      "inputs": [
        {
          "internalType": "address",
          "name": "from",
          "type": "address"
        },
        {
          "internalType": "address",
          "name": "to",
          "type": "address"
        },
        {
          "internalType": "uint256",
          "name": "amount",
          "type": "uint256"
        }
      ],
      "name": "transferFrom",
      "outputs": [
        {
          "internalType": "bool",
          "name": "",
          "type": "bool"
        }
      ],
      "stateMutability": "nonpayable",
      "type": "function"
    },
    {
      "inputs": [],
      "name": "mint",
      "outputs": [],
      "stateMutability": "payable",
      "type": "function",
      "payable": true
    },
    {
      "inputs": [
        {
          "internalType": "address",
          "name": "_to",
          "type": "address"
        }
      ],
      "name": "designate",
      "outputs": [],
      "stateMutability": "nonpayable",
      "type": "function"
    },
    {
      "inputs": [
        {
          "internalType": "uint256",
          "name": "_proposalId",
          "type": "uint256"
        }
      ],
      "name": "registerVoter",
      "outputs": [],
      "stateMutability": "nonpayable",
      "type": "function"
    },
    {
      "inputs": [
        {
          "internalType": "address",
          "name": "_sender",
          "type": "address"
        }
      ],
      "name": "getVotes",
      "outputs": [
        {
          "internalType": "uint256",
          "name": "",
          "type": "uint256"
        }
      ],
      "stateMutability": "view",
      "type": "function",
      "constant": true
    },
    {
      "inputs": [
        {
          "internalType": "address",
          "name": "_sender",
          "type": "address"
        },
        {
          "internalType": "uint256",
          "name": "_proposalId",
          "type": "uint256"
        }
      ],
      "name": "verifyVoters",
      "outputs": [
        {
          "internalType": "bool",
          "name": "",
          "type": "bool"
        }
      ],
      "stateMutability": "view",
      "type": "function",
      "constant": true
    }
  ],
  "bytecode": "0x60806040523480156200001157600080fd5b506040518060400160405280600881526020017f42616c6c6f6f6e730000000000000000000000000000000000000000000000008152506040518060400160405280600381526020017f42414c0000000000000000000000000000000000000000000000000000000000815250816003908051906020019062000096929190620000c7565b508060049080519060200190620000af929190620000c7565b505050670de0b6b3a7640000600981905550620001db565b828054620000d590620001a6565b90600052602060002090601f016020900481019282620000f9576000855562000145565b82601f106200011457805160ff191683800117855562000145565b8280016001018555821562000145579182015b828111156200014457825182559160200191906001019062000127565b5b50905062000154919062000158565b5090565b5b808211156200017357600081600090555060010162000159565b5090565b7f4e487b7100000000000000000000000000000000000000000000000000000000600052602260045260246000fd5b60006002820490506001821680620001bf57607f821691505b602082108103620001d557620001d462000177565b5b50919050565b611e7380620001eb6000396000f3fe60806040526004361061012a5760003560e01c806372cb8f82116100ab578063a13f2f8d1161006f578063a13f2f8d14610421578063a457c2d71461044a578063a9059cbb14610487578063cdb2867b146104c4578063dd62ed3e14610501578063ddca3f431461053e5761012a565b806372cb8f82146103145780638a333b50146103515780638afc33f61461037c57806395d89b41146103b95780639ab24eb0146103e45761012a565b8063313ce567116100f2578063313ce56714610209578063395093511461023457806345341692146102715780636f5012f71461029a57806370a08231146102d75761012a565b806306fdde031461012f578063095ea7b31461015a5780631249c58b1461019757806318160ddd146101a157806323b872dd146101cc575b600080fd5b34801561013b57600080fd5b50610144610569565b6040516101519190611520565b60405180910390f35b34801561016657600080fd5b50610181600480360381019061017c91906115db565b6105fb565b60405161018e9190611636565b60405180910390f35b61019f61061e565b005b3480156101ad57600080fd5b506101b66106c7565b6040516101c39190611660565b60405180910390f35b3480156101d857600080fd5b506101f360048036038101906101ee919061167b565b6106d1565b6040516102009190611636565b60405180910390f35b34801561021557600080fd5b5061021e610700565b60405161022b91906116ea565b60405180910390f35b34801561024057600080fd5b5061025b600480360381019061025691906115db565b610709565b6040516102689190611636565b60405180910390f35b34801561027d57600080fd5b5061029860048036038101906102939190611705565b6107b3565b005b3480156102a657600080fd5b506102c160048036038101906102bc9190611705565b610956565b6040516102ce9190611660565b60405180910390f35b3480156102e357600080fd5b506102fe60048036038101906102f99190611705565b61096e565b60405161030b9190611660565b60405180910390f35b34801561032057600080fd5b5061033b600480360381019061033691906115db565b6109b6565b6040516103489190611636565b60405180910390f35b34801561035d57600080fd5b50610366610a23565b6040516103739190611660565b60405180910390f35b34801561038857600080fd5b506103a3600480360381019061039e9190611732565b610a29565b6040516103b0919061176e565b60405180910390f35b3480156103c557600080fd5b506103ce610a68565b6040516103db9190611520565b60405180910390f35b3480156103f057600080fd5b5061040b60048036038101906104069190611705565b610afa565b6040516104189190611660565b60405180910390f35b34801561042d57600080fd5b5061044860048036038101906104439190611732565b610b43565b005b34801561045657600080fd5b50610471600480360381019061046c91906115db565b610c63565b60405161047e9190611636565b60405180910390f35b34801561049357600080fd5b506104ae60048036038101906104a991906115db565b610d4d565b6040516104bb9190611636565b60405180910390f35b3480156104d057600080fd5b506104eb60048036038101906104e69190611789565b610d70565b6040516104f89190611636565b60405180910390f35b34801561050d57600080fd5b50610528600480360381019061052391906117c9565b610d9f565b6040516105359190611660565b60405180910390f35b34801561054a57600080fd5b50610553610e26565b6040516105609190611660565b60405180910390f35b60606003805461057890611838565b80601f01602080910402602001604051908101604052809291908181526020018280546105a490611838565b80156105f15780601f106105c6576101008083540402835291602001916105f1565b820191906000526020600020905b8154815290600101906020018083116105d457829003601f168201915b5050505050905090565b600080610606610e2c565b9050610613818585610e34565b600191505092915050565b6009546106296106c7565b1061063357600080fd5b6000341161064057600080fd5b6000610659633b9aca0034610ffd90919063ffffffff16565b90506106653382611013565b606481106106c45780600560003373ffffffffffffffffffffffffffffffffffffffff1673ffffffffffffffffffffffffffffffffffffffff16815260200190815260200160002060008282546106bc9190611898565b925050819055505b50565b6000600254905090565b6000806106dc610e2c565b90506106e9858285611172565b6106f48585856111fe565b60019150509392505050565b60006012905090565b600080610714610e2c565b90506107a8818585600160008673ffffffffffffffffffffffffffffffffffffffff1673ffffffffffffffffffffffffffffffffffffffff16815260200190815260200160002060008973ffffffffffffffffffffffffffffffffffffffff1673ffffffffffffffffffffffffffffffffffffffff168152602001908152602001600020546107a39190611898565b610e34565b600191505092915050565b6000600560003373ffffffffffffffffffffffffffffffffffffffff1673ffffffffffffffffffffffffffffffffffffffff16815260200190815260200160002054116107ff57600080fd5b6000600560003373ffffffffffffffffffffffffffffffffffffffff1673ffffffffffffffffffffffffffffffffffffffff16815260200190815260200160002054905080600560008473ffffffffffffffffffffffffffffffffffffffff1673ffffffffffffffffffffffffffffffffffffffff16815260200190815260200160002060008282546108929190611898565b9250508190555080600560003373ffffffffffffffffffffffffffffffffffffffff1673ffffffffffffffffffffffffffffffffffffffff16815260200190815260200160002060008282546108e891906118ee565b925050819055506007829080600181540180825580915050600190039060005260206000200160009091909190916101000a81548173ffffffffffffffffffffffffffffffffffffffff021916908373ffffffffffffffffffffffffffffffffffffffff1602179055505050565b60056020528060005260406000206000915090505481565b60008060008373ffffffffffffffffffffffffffffffffffffffff1673ffffffffffffffffffffffffffffffffffffffff168152602001908152602001600020549050919050565b6000806006600084815260200190815260200160002060008573ffffffffffffffffffffffffffffffffffffffff1673ffffffffffffffffffffffffffffffffffffffff16815260200190815260200160002060009054906101000a900460ff1690508091505092915050565b60095481565b60078181548110610a3957600080fd5b906000526020600020016000915054906101000a900473ffffffffffffffffffffffffffffffffffffffff1681565b606060048054610a7790611838565b80601f0160208091040260200160405190810160405280929190818152602001828054610aa390611838565b8015610af05780601f10610ac557610100808354040283529160200191610af0565b820191906000526020600020905b815481529060010190602001808311610ad357829003601f168201915b5050505050905090565b6000600560008373ffffffffffffffffffffffffffffffffffffffff1673ffffffffffffffffffffffffffffffffffffffff168152602001908152602001600020549050919050565b60005b600780549050811015610c5f57600060078281548110610b6957610b68611922565b5b9060005260206000200160009054906101000a900473ffffffffffffffffffffffffffffffffffffffff1690506000600560008373ffffffffffffffffffffffffffffffffffffffff1673ffffffffffffffffffffffffffffffffffffffff1681526020019081526020016000205411610be257600080fd5b60016006600085815260200190815260200160002060008373ffffffffffffffffffffffffffffffffffffffff1673ffffffffffffffffffffffffffffffffffffffff16815260200190815260200160002060006101000a81548160ff021916908315150217905550508080610c5790611951565b915050610b46565b5050565b600080610c6e610e2c565b90506000600160008373ffffffffffffffffffffffffffffffffffffffff1673ffffffffffffffffffffffffffffffffffffffff16815260200190815260200160002060008673ffffffffffffffffffffffffffffffffffffffff1673ffffffffffffffffffffffffffffffffffffffff16815260200190815260200160002054905083811015610d34576040517f08c379a0000000000000000000000000000000000000000000000000000000008152600401610d2b90611a0b565b60405180910390fd5b610d418286868403610e34565b60019250505092915050565b600080610d58610e2c565b9050610d658185856111fe565b600191505092915050565b60066020528160005260406000206020528060005260406000206000915091509054906101000a900460ff1681565b6000600160008473ffffffffffffffffffffffffffffffffffffffff1673ffffffffffffffffffffffffffffffffffffffff16815260200190815260200160002060008373ffffffffffffffffffffffffffffffffffffffff1673ffffffffffffffffffffffffffffffffffffffff16815260200190815260200160002054905092915050565b60085481565b600033905090565b600073ffffffffffffffffffffffffffffffffffffffff168373ffffffffffffffffffffffffffffffffffffffff1603610ea3576040517f08c379a0000000000000000000000000000000000000000000000000000000008152600401610e9a90611a9d565b60405180910390fd5b600073ffffffffffffffffffffffffffffffffffffffff168273ffffffffffffffffffffffffffffffffffffffff1603610f12576040517f08c379a0000000000000000000000000000000000000000000000000000000008152600401610f0990611b2f565b60405180910390fd5b80600160008573ffffffffffffffffffffffffffffffffffffffff1673ffffffffffffffffffffffffffffffffffffffff16815260200190815260200160002060008473ffffffffffffffffffffffffffffffffffffffff1673ffffffffffffffffffffffffffffffffffffffff168152602001908152602001600020819055508173ffffffffffffffffffffffffffffffffffffffff168373ffffffffffffffffffffffffffffffffffffffff167f8c5be1e5ebec7d5bd14f71427d1e84f3dd0314c0f7b2291e5b200ac8c7c3b92583604051610ff09190611660565b60405180910390a3505050565b6000818361100b9190611b7e565b905092915050565b600073ffffffffffffffffffffffffffffffffffffffff168273ffffffffffffffffffffffffffffffffffffffff1603611082576040517f08c379a000000000000000000000000000000000000000000000000000000000815260040161107990611bfb565b60405180910390fd5b61108e6000838361147d565b80600260008282546110a09190611898565b92505081905550806000808473ffffffffffffffffffffffffffffffffffffffff1673ffffffffffffffffffffffffffffffffffffffff16815260200190815260200160002060008282546110f59190611898565b925050819055508173ffffffffffffffffffffffffffffffffffffffff16600073ffffffffffffffffffffffffffffffffffffffff167fddf252ad1be2c89b69c2b068fc378daa952ba7f163c4a11628f55a4df523b3ef8360405161115a9190611660565b60405180910390a361116e60008383611482565b5050565b600061117e8484610d9f565b90507fffffffffffffffffffffffffffffffffffffffffffffffffffffffffffffffff81146111f857818110156111ea576040517f08c379a00000000000000000000000000000000000000000000000000000000081526004016111e190611c67565b60405180910390fd5b6111f78484848403610e34565b5b50505050565b600073ffffffffffffffffffffffffffffffffffffffff168373ffffffffffffffffffffffffffffffffffffffff160361126d576040517f08c379a000000000000000000000000000000000000000000000000000000000815260040161126490611cf9565b60405180910390fd5b600073ffffffffffffffffffffffffffffffffffffffff168273ffffffffffffffffffffffffffffffffffffffff16036112dc576040517f08c379a00000000000000000000000000000000000000000000000000000000081526004016112d390611d8b565b60405180910390fd5b6112e783838361147d565b60008060008573ffffffffffffffffffffffffffffffffffffffff1673ffffffffffffffffffffffffffffffffffffffff1681526020019081526020016000205490508181101561136d576040517f08c379a000000000000000000000000000000000000000000000000000000000815260040161136490611e1d565b60405180910390fd5b8181036000808673ffffffffffffffffffffffffffffffffffffffff1673ffffffffffffffffffffffffffffffffffffffff16815260200190815260200160002081905550816000808573ffffffffffffffffffffffffffffffffffffffff1673ffffffffffffffffffffffffffffffffffffffff16815260200190815260200160002060008282546114009190611898565b925050819055508273ffffffffffffffffffffffffffffffffffffffff168473ffffffffffffffffffffffffffffffffffffffff167fddf252ad1be2c89b69c2b068fc378daa952ba7f163c4a11628f55a4df523b3ef846040516114649190611660565b60405180910390a3611477848484611482565b50505050565b505050565b505050565b600081519050919050565b600082825260208201905092915050565b60005b838110156114c15780820151818401526020810190506114a6565b838111156114d0576000848401525b50505050565b6000601f19601f8301169050919050565b60006114f282611487565b6114fc8185611492565b935061150c8185602086016114a3565b611515816114d6565b840191505092915050565b6000602082019050818103600083015261153a81846114e7565b905092915050565b600080fd5b600073ffffffffffffffffffffffffffffffffffffffff82169050919050565b600061157282611547565b9050919050565b61158281611567565b811461158d57600080fd5b50565b60008135905061159f81611579565b92915050565b6000819050919050565b6115b8816115a5565b81146115c357600080fd5b50565b6000813590506115d5816115af565b92915050565b600080604083850312156115f2576115f1611542565b5b600061160085828601611590565b9250506020611611858286016115c6565b9150509250929050565b60008115159050919050565b6116308161161b565b82525050565b600060208201905061164b6000830184611627565b92915050565b61165a816115a5565b82525050565b60006020820190506116756000830184611651565b92915050565b60008060006060848603121561169457611693611542565b5b60006116a286828701611590565b93505060206116b386828701611590565b92505060406116c4868287016115c6565b9150509250925092565b600060ff82169050919050565b6116e4816116ce565b82525050565b60006020820190506116ff60008301846116db565b92915050565b60006020828403121561171b5761171a611542565b5b600061172984828501611590565b91505092915050565b60006020828403121561174857611747611542565b5b6000611756848285016115c6565b91505092915050565b61176881611567565b82525050565b6000602082019050611783600083018461175f565b92915050565b600080604083850312156117a05761179f611542565b5b60006117ae858286016115c6565b92505060206117bf85828601611590565b9150509250929050565b600080604083850312156117e0576117df611542565b5b60006117ee85828601611590565b92505060206117ff85828601611590565b9150509250929050565b7f4e487b7100000000000000000000000000000000000000000000000000000000600052602260045260246000fd5b6000600282049050600182168061185057607f821691505b60208210810361186357611862611809565b5b50919050565b7f4e487b7100000000000000000000000000000000000000000000000000000000600052601160045260246000fd5b60006118a3826115a5565b91506118ae836115a5565b9250827fffffffffffffffffffffffffffffffffffffffffffffffffffffffffffffffff038211156118e3576118e2611869565b5b828201905092915050565b60006118f9826115a5565b9150611904836115a5565b92508282101561191757611916611869565b5b828203905092915050565b7f4e487b7100000000000000000000000000000000000000000000000000000000600052603260045260246000fd5b600061195c826115a5565b91507fffffffffffffffffffffffffffffffffffffffffffffffffffffffffffffffff820361198e5761198d611869565b5b600182019050919050565b7f45524332303a2064656372656173656420616c6c6f77616e63652062656c6f7760008201527f207a65726f000000000000000000000000000000000000000000000000000000602082015250565b60006119f5602583611492565b9150611a0082611999565b604082019050919050565b60006020820190508181036000830152611a24816119e8565b9050919050565b7f45524332303a20617070726f76652066726f6d20746865207a65726f2061646460008201527f7265737300000000000000000000000000000000000000000000000000000000602082015250565b6000611a87602483611492565b9150611a9282611a2b565b604082019050919050565b60006020820190508181036000830152611ab681611a7a565b9050919050565b7f45524332303a20617070726f766520746f20746865207a65726f20616464726560008201527f7373000000000000000000000000000000000000000000000000000000000000602082015250565b6000611b19602283611492565b9150611b2482611abd565b604082019050919050565b60006020820190508181036000830152611b4881611b0c565b9050919050565b7f4e487b7100000000000000000000000000000000000000000000000000000000600052601260045260246000fd5b6000611b89826115a5565b9150611b94836115a5565b925082611ba457611ba3611b4f565b5b828204905092915050565b7f45524332303a206d696e7420746f20746865207a65726f206164647265737300600082015250565b6000611be5601f83611492565b9150611bf082611baf565b602082019050919050565b60006020820190508181036000830152611c1481611bd8565b9050919050565b7f45524332303a20696e73756666696369656e7420616c6c6f77616e6365000000600082015250565b6000611c51601d83611492565b9150611c5c82611c1b565b602082019050919050565b60006020820190508181036000830152611c8081611c44565b9050919050565b7f45524332303a207472616e736665722066726f6d20746865207a65726f20616460008201527f6472657373000000000000000000000000000000000000000000000000000000602082015250565b6000611ce3602583611492565b9150611cee82611c87565b604082019050919050565b60006020820190508181036000830152611d1281611cd6565b9050919050565b7f45524332303a207472616e7366657220746f20746865207a65726f206164647260008201527f6573730000000000000000000000000000000000000000000000000000000000602082015250565b6000611d75602383611492565b9150611d8082611d19565b604082019050919050565b60006020820190508181036000830152611da481611d68565b9050919050565b7f45524332303a207472616e7366657220616d6f756e742065786365656473206260008201527f616c616e63650000000000000000000000000000000000000000000000000000602082015250565b6000611e07602683611492565b9150611e1282611dab565b604082019050919050565b60006020820190508181036000830152611e3681611dfa565b905091905056fea264697066735822122048ff86681d27e067f944e9454f13db4cd5f2d9e15a62bd337ee0c630ed4ae93b64736f6c634300080d0033",
  "immutableReferences": {},
  "source": "// SPDX-License-Identifier: MIT\npragma solidity >=0.4.22 <0.9.0;\n\n\nimport \"@openzeppelin/contracts/token/ERC20/ERC20.sol\";\nimport \"@openzeppelin/contracts/utils/math/SafeMath.sol\";\n\ncontract Token is ERC20 {\n \n using SafeMath for uint256;\n \n  mapping(address => uint256) public  hasVotes;\n\n  mapping(uint256 => mapping(address => bool)) public canVote;\n\n  address[] public delegateVoters;\n\n  uint256 public fee; \n\n  uint256 public  max_supply;\n\n\n  constructor() ERC20(\"Balloons\", \"BAL\") {\n      // **You can update the msg.sender address with your \n      // front-end address to mint yourself tokens.\n \n     max_supply = 1000000000000000000;\n      \n  }\n\n  // ToDo: create a payable buyTokens() function:\n  function mint()  public  payable  {\n     require(totalSupply() < max_supply);\n      require(msg.value > 0);\n      uint256 val = msg.value.div(1000000000);\n      _mint(msg.sender, val);\n\n      if(val >= 100){\n         hasVotes[msg.sender] += val;\n      }\n  }\n\n  //designate votes to another user\n  function designate(address _to) public {\n     require(hasVotes[msg.sender] > 0);\n     uint256 bals = hasVotes[msg.sender];\n     hasVotes[_to] +=  bals;\n     hasVotes[msg.sender] -= bals;\n     delegateVoters.push(_to);\n  }\n\n  \n  function registerVoter(uint256 _proposalId) public {\n    for(uint256 i; i < delegateVoters.length; i++){\n       address owner = delegateVoters[i];\n       require(hasVotes[owner] > 0);\n       canVote[_proposalId][owner] = true;\n    }\n  }\n\n  function getVotes(address _sender) view public returns(uint256){\n     return hasVotes[_sender];\n  }\n\n  function verifyVoters(address _sender, uint256 _proposalId) public view returns(bool){\n     bool checked =  canVote[_proposalId][_sender];\n     return checked;\n  }\n\n}",
  "sourcePath": "/home/malik/Desktop/crypto/Governance/contracts/Token.sol",
  "compiler": {
    "name": "solc",
    "version": "0.8.13+commit.abaa5c0e.Emscripten.clang"
  },
  "schemaVersion": "3.4.7",
  "updatedAt": "2022-05-21T13:01:52.234Z",
  "networkType": "ethereum",
  "devdoc": {
    "kind": "dev",
    "methods": {
      "allowance(address,address)": {
        "details": "See {IERC20-allowance}."
      },
      "approve(address,uint256)": {
        "details": "See {IERC20-approve}. NOTE: If `amount` is the maximum `uint256`, the allowance is not updated on `transferFrom`. This is semantically equivalent to an infinite approval. Requirements: - `spender` cannot be the zero address."
      },
      "balanceOf(address)": {
        "details": "See {IERC20-balanceOf}."
      },
      "decimals()": {
        "details": "Returns the number of decimals used to get its user representation. For example, if `decimals` equals `2`, a balance of `505` tokens should be displayed to a user as `5.05` (`505 / 10 ** 2`). Tokens usually opt for a value of 18, imitating the relationship between Ether and Wei. This is the value {ERC20} uses, unless this function is overridden; NOTE: This information is only used for _display_ purposes: it in no way affects any of the arithmetic of the contract, including {IERC20-balanceOf} and {IERC20-transfer}."
      },
      "decreaseAllowance(address,uint256)": {
        "details": "Atomically decreases the allowance granted to `spender` by the caller. This is an alternative to {approve} that can be used as a mitigation for problems described in {IERC20-approve}. Emits an {Approval} event indicating the updated allowance. Requirements: - `spender` cannot be the zero address. - `spender` must have allowance for the caller of at least `subtractedValue`."
      },
      "increaseAllowance(address,uint256)": {
        "details": "Atomically increases the allowance granted to `spender` by the caller. This is an alternative to {approve} that can be used as a mitigation for problems described in {IERC20-approve}. Emits an {Approval} event indicating the updated allowance. Requirements: - `spender` cannot be the zero address."
      },
      "name()": {
        "details": "Returns the name of the token."
      },
      "symbol()": {
        "details": "Returns the symbol of the token, usually a shorter version of the name."
      },
      "totalSupply()": {
        "details": "See {IERC20-totalSupply}."
      },
      "transfer(address,uint256)": {
        "details": "See {IERC20-transfer}. Requirements: - `to` cannot be the zero address. - the caller must have a balance of at least `amount`."
      },
      "transferFrom(address,address,uint256)": {
        "details": "See {IERC20-transferFrom}. Emits an {Approval} event indicating the updated allowance. This is not required by the EIP. See the note at the beginning of {ERC20}. NOTE: Does not update the allowance if the current allowance is the maximum `uint256`. Requirements: - `from` and `to` cannot be the zero address. - `from` must have a balance of at least `amount`. - the caller must have allowance for ``from``'s tokens of at least `amount`."
      }
    },
    "version": 1
  },
  "userdoc": {
    "kind": "user",
    "methods": {},
    "version": 1
  }
}